:100000000C9438000C9455000C9455000C94550039
:100010000C9455000C9455000C9455000C9455000C
:100020000C9455000C9455000C9455000C945500FC
:100030000C9455000C9455000C9455000C945500EC
:100040000C9455000C9455000C9455000C945500DC
:100050000C9455000C9455000C9455000C945500CC
:100060000C9455000C9455000C9455000C945500BC
:1000700011241FBECFEFD0E1DEBFCDBF11E0A0E065
:10008000B1E0EEE5F1E002C005900D92A030B107BD
:10009000D9F711E0A0E0B1E001C01D92A030B10796
:1000A000E1F70E9457000C94AD000C94000014B8C6
:1000B00081E087B9FFCF8091C10087FFFCCF80919D
:1000C000C60008958BB9159A1698179A179888EC58
:1000D00090E00197F1F70895CF93DF93EC0102C010
:1000E0000E94620089918823D9F7DF91CF9108950A
:1000F0008BB982B18F7982B9179A179880E797E107
:100100000197F1F7089588E38BB982B18F7982B9AD
:10011000179A179825E8822F8A95F1F78CE08BB90A
:1001200082B18F7982B9179A1798822F8A95F1F741
:1001300081E08BB982B18F7982B9179A179880E7DD
:1001400097E10197F1F786E08BB982B18F7982B997
:0E015000179A17982A95F1F70895F894FFCFA3
:00000001FF
